{
  "_format": "hh-sol-artifact-1",
  "contractName": "PrivacyContract",
  "sourceName": "src/contracts/PrivacyContract.sol",
  "abi": [
    {
      "anonymous": false,
      "inputs": [
        {
          "indexed": true,
          "internalType": "address",
          "name": "user",
          "type": "address"
        },
        {
          "indexed": false,
          "internalType": "uint256",
          "name": "epsilon",
          "type": "uint256"
        },
        {
          "indexed": false,
          "internalType": "uint256",
          "name": "delta",
          "type": "uint256"
        }
      ],
      "name": "PrivacyParamsUpdated",
      "type": "event"
    },
    {
      "anonymous": false,
      "inputs": [
        {
          "indexed": true,
          "internalType": "address",
          "name": "user",
          "type": "address"
        },
        {
          "indexed": false,
          "internalType": "bool",
          "name": "consent",
          "type": "bool"
        }
      ],
      "name": "UserConsentUpdated",
      "type": "event"
    },
    {
      "inputs": [],
      "name": "getUserPrivacyParams",
      "outputs": [
        {
          "components": [
            {
              "internalType": "uint256",
              "name": "epsilon",
              "type": "uint256"
            },
            {
              "internalType": "uint256",
              "name": "delta",
              "type": "uint256"
            },
            {
              "internalType": "uint256",
              "name": "timestamp",
              "type": "uint256"
            },
            {
              "internalType": "bytes32",
              "name": "dataHash",
              "type": "bytes32"
            }
          ],
          "internalType": "struct PrivacyContract.PrivacyParameters[]",
          "name": "",
          "type": "tuple[]"
        }
      ],
      "stateMutability": "view",
      "type": "function"
    },
    {
      "inputs": [
        {
          "internalType": "address",
          "name": "_user",
          "type": "address"
        }
      ],
      "name": "hasUserConsent",
      "outputs": [
        {
          "internalType": "bool",
          "name": "",
          "type": "bool"
        }
      ],
      "stateMutability": "view",
      "type": "function"
    },
    {
      "inputs": [
        {
          "internalType": "uint256",
          "name": "_epsilon",
          "type": "uint256"
        },
        {
          "internalType": "uint256",
          "name": "_delta",
          "type": "uint256"
        },
        {
          "internalType": "bytes32",
          "name": "_dataHash",
          "type": "bytes32"
        }
      ],
      "name": "setPrivacyParameters",
      "outputs": [],
      "stateMutability": "nonpayable",
      "type": "function"
    },
    {
      "inputs": [
        {
          "internalType": "bool",
          "name": "_consent",
          "type": "bool"
        }
      ],
      "name": "setUserConsent",
      "outputs": [],
      "stateMutability": "nonpayable",
      "type": "function"
    },
    {
      "inputs": [
        {
          "internalType": "address",
          "name": "",
          "type": "address"
        }
      ],
      "name": "userConsent",
      "outputs": [
        {
          "internalType": "bool",
          "name": "",
          "type": "bool"
        }
      ],
      "stateMutability": "view",
      "type": "function"
    },
    {
      "inputs": [
        {
          "internalType": "address",
          "name": "",
          "type": "address"
        },
        {
          "internalType": "uint256",
          "name": "",
          "type": "uint256"
        }
      ],
      "name": "userPrivacyParams",
      "outputs": [
        {
          "internalType": "uint256",
          "name": "epsilon",
          "type": "uint256"
        },
        {
          "internalType": "uint256",
          "name": "delta",
          "type": "uint256"
        },
        {
          "internalType": "uint256",
          "name": "timestamp",
          "type": "uint256"
        },
        {
          "internalType": "bytes32",
          "name": "dataHash",
          "type": "bytes32"
        }
      ],
      "stateMutability": "view",
      "type": "function"
    }
  ],
  "bytecode": "0x608060405234801561001057600080fd5b506108af806100206000396000f3fe608060405234801561001057600080fd5b50600436106100625760003560e01c80631f3f9663146100675780632c328c0c1461008557806383a29f19146100a15780639f31b3cb146100d1578063dd63181f146100ed578063e1a850ef1461011d575b600080fd5b61006f610150565b60405161007c91906105c1565b60405180910390f35b61009f600480360381019061009a9190610640565b610213565b005b6100bb60048036038101906100b691906106f1565b610320565b6040516100c89190610739565b60405180910390f35b6100eb60048036038101906100e69190610780565b610376565b005b610107600480360381019061010291906106f1565b61041e565b6040516101149190610739565b60405180910390f35b610137600480360381019061013291906107ad565b61043e565b604051610147949392919061080b565b60405180910390f35b60606000803373ffffffffffffffffffffffffffffffffffffffff1673ffffffffffffffffffffffffffffffffffffffff168152602001908152602001600020805480602002602001604051908101604052809291908181526020016000905b8282101561020a5783829060005260206000209060040201604051806080016040529081600082015481526020016001820154815260200160028201548152602001600382015481525050815260200190600101906101b0565b50505050905090565b600060405180608001604052808581526020018481526020014281526020018381525090506000803373ffffffffffffffffffffffffffffffffffffffff1673ffffffffffffffffffffffffffffffffffffffff1681526020019081526020016000208190806001815401808255809150506001900390600052602060002090600402016000909190919091506000820151816000015560208201518160010155604082015181600201556060820151816003015550503373ffffffffffffffffffffffffffffffffffffffff167f76d8dd5cb4b20dde3394df6983519bc1f70ba616843231ae4cd9499eb8119a0f8585604051610312929190610850565b60405180910390a250505050565b6000600160008373ffffffffffffffffffffffffffffffffffffffff1673ffffffffffffffffffffffffffffffffffffffff16815260200190815260200160002060009054906101000a900460ff169050919050565b80600160003373ffffffffffffffffffffffffffffffffffffffff1673ffffffffffffffffffffffffffffffffffffffff16815260200190815260200160002060006101000a81548160ff0219169083151502179055503373ffffffffffffffffffffffffffffffffffffffff167f06e378157d29294c297d353417d9995b53d03c939b7b399983e066b675efe00f826040516104139190610739565b60405180910390a250565b60016020528060005260406000206000915054906101000a900460ff1681565b6000602052816000526040600020818154811061045a57600080fd5b9060005260206000209060040201600091509150508060000154908060010154908060020154908060030154905084565b600081519050919050565b600082825260208201905092915050565b6000819050602082019050919050565b6000819050919050565b6104ca816104b7565b82525050565b6000819050919050565b6104e3816104d0565b82525050565b6080820160008201516104ff60008501826104c1565b50602082015161051260208501826104c1565b50604082015161052560408501826104c1565b50606082015161053860608501826104da565b50505050565b600061054a83836104e9565b60808301905092915050565b6000602082019050919050565b600061056e8261048b565b6105788185610496565b9350610583836104a7565b8060005b838110156105b457815161059b888261053e565b97506105a683610556565b925050600181019050610587565b5085935050505092915050565b600060208201905081810360008301526105db8184610563565b905092915050565b600080fd5b6105f1816104b7565b81146105fc57600080fd5b50565b60008135905061060e816105e8565b92915050565b61061d816104d0565b811461062857600080fd5b50565b60008135905061063a81610614565b92915050565b600080600060608486031215610659576106586105e3565b5b6000610667868287016105ff565b9350506020610678868287016105ff565b92505060406106898682870161062b565b9150509250925092565b600073ffffffffffffffffffffffffffffffffffffffff82169050919050565b60006106be82610693565b9050919050565b6106ce816106b3565b81146106d957600080fd5b50565b6000813590506106eb816106c5565b92915050565b600060208284031215610707576107066105e3565b5b6000610715848285016106dc565b91505092915050565b60008115159050919050565b6107338161071e565b82525050565b600060208201905061074e600083018461072a565b92915050565b61075d8161071e565b811461076857600080fd5b50565b60008135905061077a81610754565b92915050565b600060208284031215610796576107956105e3565b5b60006107a48482850161076b565b91505092915050565b600080604083850312156107c4576107c36105e3565b5b60006107d2858286016106dc565b92505060206107e3858286016105ff565b9150509250929050565b6107f6816104b7565b82525050565b610805816104d0565b82525050565b600060808201905061082060008301876107ed565b61082d60208301866107ed565b61083a60408301856107ed565b61084760608301846107fc565b95945050505050565b600060408201905061086560008301856107ed565b61087260208301846107ed565b939250505056fea2646970667358221220443ed3b4a9f1fe9ce312ef7742823d9057db8011b19f99a27fe64c4c2681da2b64736f6c63430008130033",
  "linkReferences": {},
  "deployedLinkReferences": {}
}